{
  "_format": "hh-sol-artifact-1",
  "contractName": "ShinewToken",
  "sourceName": "contracts/ShinewToken.sol",
  "abi": [
    {
      "inputs": [],
      "stateMutability": "nonpayable",
      "type": "constructor"
    },
    {
      "anonymous": false,
      "inputs": [
        {
          "indexed": true,
          "internalType": "address",
          "name": "owner",
          "type": "address"
        },
        {
          "indexed": true,
          "internalType": "address",
          "name": "approved",
          "type": "address"
        },
        {
          "indexed": true,
          "internalType": "uint256",
          "name": "tokenId",
          "type": "uint256"
        }
      ],
      "name": "Approval",
      "type": "event"
    },
    {
      "anonymous": false,
      "inputs": [
        {
          "indexed": true,
          "internalType": "address",
          "name": "owner",
          "type": "address"
        },
        {
          "indexed": true,
          "internalType": "address",
          "name": "operator",
          "type": "address"
        },
        {
          "indexed": false,
          "internalType": "bool",
          "name": "approved",
          "type": "bool"
        }
      ],
      "name": "ApprovalForAll",
      "type": "event"
    },
    {
      "anonymous": false,
      "inputs": [
        {
          "indexed": true,
          "internalType": "address",
          "name": "previousOwner",
          "type": "address"
        },
        {
          "indexed": true,
          "internalType": "address",
          "name": "newOwner",
          "type": "address"
        }
      ],
      "name": "OwnershipTransferred",
      "type": "event"
    },
    {
      "anonymous": false,
      "inputs": [
        {
          "indexed": true,
          "internalType": "address",
          "name": "from",
          "type": "address"
        },
        {
          "indexed": true,
          "internalType": "address",
          "name": "to",
          "type": "address"
        },
        {
          "indexed": true,
          "internalType": "uint256",
          "name": "tokenId",
          "type": "uint256"
        }
      ],
      "name": "Transfer",
      "type": "event"
    },
    {
      "inputs": [],
      "name": "BASE_URI",
      "outputs": [
        {
          "internalType": "string",
          "name": "",
          "type": "string"
        }
      ],
      "stateMutability": "view",
      "type": "function"
    },
    {
      "inputs": [],
      "name": "MINT_PRICE",
      "outputs": [
        {
          "internalType": "uint256",
          "name": "",
          "type": "uint256"
        }
      ],
      "stateMutability": "view",
      "type": "function"
    },
    {
      "inputs": [],
      "name": "SUPPLY",
      "outputs": [
        {
          "internalType": "uint256",
          "name": "",
          "type": "uint256"
        }
      ],
      "stateMutability": "view",
      "type": "function"
    },
    {
      "inputs": [
        {
          "internalType": "address",
          "name": "to",
          "type": "address"
        },
        {
          "internalType": "uint256",
          "name": "tokenId",
          "type": "uint256"
        }
      ],
      "name": "approve",
      "outputs": [],
      "stateMutability": "nonpayable",
      "type": "function"
    },
    {
      "inputs": [
        {
          "internalType": "address",
          "name": "owner",
          "type": "address"
        }
      ],
      "name": "balanceOf",
      "outputs": [
        {
          "internalType": "uint256",
          "name": "",
          "type": "uint256"
        }
      ],
      "stateMutability": "view",
      "type": "function"
    },
    {
      "inputs": [
        {
          "internalType": "uint256",
          "name": "tokenId",
          "type": "uint256"
        }
      ],
      "name": "getApproved",
      "outputs": [
        {
          "internalType": "address",
          "name": "",
          "type": "address"
        }
      ],
      "stateMutability": "view",
      "type": "function"
    },
    {
      "inputs": [],
      "name": "getNumberMinted",
      "outputs": [
        {
          "internalType": "uint256",
          "name": "",
          "type": "uint256"
        }
      ],
      "stateMutability": "view",
      "type": "function"
    },
    {
      "inputs": [
        {
          "internalType": "address",
          "name": "owner",
          "type": "address"
        },
        {
          "internalType": "address",
          "name": "operator",
          "type": "address"
        }
      ],
      "name": "isApprovedForAll",
      "outputs": [
        {
          "internalType": "bool",
          "name": "",
          "type": "bool"
        }
      ],
      "stateMutability": "view",
      "type": "function"
    },
    {
      "inputs": [
        {
          "internalType": "address",
          "name": "recipient",
          "type": "address"
        }
      ],
      "name": "mintToken",
      "outputs": [
        {
          "internalType": "uint256",
          "name": "",
          "type": "uint256"
        }
      ],
      "stateMutability": "payable",
      "type": "function"
    },
    {
      "inputs": [],
      "name": "name",
      "outputs": [
        {
          "internalType": "string",
          "name": "",
          "type": "string"
        }
      ],
      "stateMutability": "view",
      "type": "function"
    },
    {
      "inputs": [],
      "name": "owner",
      "outputs": [
        {
          "internalType": "address",
          "name": "",
          "type": "address"
        }
      ],
      "stateMutability": "view",
      "type": "function"
    },
    {
      "inputs": [
        {
          "internalType": "uint256",
          "name": "tokenId",
          "type": "uint256"
        }
      ],
      "name": "ownerOf",
      "outputs": [
        {
          "internalType": "address",
          "name": "",
          "type": "address"
        }
      ],
      "stateMutability": "view",
      "type": "function"
    },
    {
      "inputs": [],
      "name": "renounceOwnership",
      "outputs": [],
      "stateMutability": "nonpayable",
      "type": "function"
    },
    {
      "inputs": [
        {
          "internalType": "address",
          "name": "from",
          "type": "address"
        },
        {
          "internalType": "address",
          "name": "to",
          "type": "address"
        },
        {
          "internalType": "uint256",
          "name": "tokenId",
          "type": "uint256"
        }
      ],
      "name": "safeTransferFrom",
      "outputs": [],
      "stateMutability": "nonpayable",
      "type": "function"
    },
    {
      "inputs": [
        {
          "internalType": "address",
          "name": "from",
          "type": "address"
        },
        {
          "internalType": "address",
          "name": "to",
          "type": "address"
        },
        {
          "internalType": "uint256",
          "name": "tokenId",
          "type": "uint256"
        },
        {
          "internalType": "bytes",
          "name": "_data",
          "type": "bytes"
        }
      ],
      "name": "safeTransferFrom",
      "outputs": [],
      "stateMutability": "nonpayable",
      "type": "function"
    },
    {
      "inputs": [
        {
          "internalType": "address",
          "name": "operator",
          "type": "address"
        },
        {
          "internalType": "bool",
          "name": "approved",
          "type": "bool"
        }
      ],
      "name": "setApprovalForAll",
      "outputs": [],
      "stateMutability": "nonpayable",
      "type": "function"
    },
    {
      "inputs": [
        {
          "internalType": "bytes4",
          "name": "interfaceId",
          "type": "bytes4"
        }
      ],
      "name": "supportsInterface",
      "outputs": [
        {
          "internalType": "bool",
          "name": "",
          "type": "bool"
        }
      ],
      "stateMutability": "view",
      "type": "function"
    },
    {
      "inputs": [],
      "name": "symbol",
      "outputs": [
        {
          "internalType": "string",
          "name": "",
          "type": "string"
        }
      ],
      "stateMutability": "view",
      "type": "function"
    },
    {
      "inputs": [
        {
          "internalType": "uint256",
          "name": "tokenId",
          "type": "uint256"
        }
      ],
      "name": "tokenURI",
      "outputs": [
        {
          "internalType": "string",
          "name": "",
          "type": "string"
        }
      ],
      "stateMutability": "view",
      "type": "function"
    },
    {
      "inputs": [
        {
          "internalType": "address",
          "name": "from",
          "type": "address"
        },
        {
          "internalType": "address",
          "name": "to",
          "type": "address"
        },
        {
          "internalType": "uint256",
          "name": "tokenId",
          "type": "uint256"
        }
      ],
      "name": "transferFrom",
      "outputs": [],
      "stateMutability": "nonpayable",
      "type": "function"
    },
    {
      "inputs": [
        {
          "internalType": "address",
          "name": "newOwner",
          "type": "address"
        }
      ],
      "name": "transferOwnership",
      "outputs": [],
      "stateMutability": "nonpayable",
      "type": "function"
    },
    {
      "inputs": [],
      "name": "withdraw",
      "outputs": [],
      "stateMutability": "nonpayable",
      "type": "function"
    }
  ],
  "bytecode": "0x6080604052612710600855601b6009556040518060800160405280604481526020016200321860449139600a908051906020019062000040929190620001e3565b503480156200004e57600080fd5b506040518060400160405280600981526020017f5368696e65774e465400000000000000000000000000000000000000000000008152506040518060400160405280600381526020017f53465400000000000000000000000000000000000000000000000000000000008152508160009080519060200190620000d3929190620001e3565b508060019080519060200190620000ec929190620001e3565b5050506200010f620001036200011560201b60201c565b6200011d60201b60201c565b620002f8565b600033905090565b6000600660009054906101000a900473ffffffffffffffffffffffffffffffffffffffff16905081600660006101000a81548173ffffffffffffffffffffffffffffffffffffffff021916908373ffffffffffffffffffffffffffffffffffffffff1602179055508173ffffffffffffffffffffffffffffffffffffffff168173ffffffffffffffffffffffffffffffffffffffff167f8be0079c531659141344cd1fd0a4f28419497f9722a3daafe3b4186f6b6457e060405160405180910390a35050565b828054620001f19062000293565b90600052602060002090601f01602090048101928262000215576000855562000261565b82601f106200023057805160ff191683800117855562000261565b8280016001018555821562000261579182015b828111156200026057825182559160200191906001019062000243565b5b50905062000270919062000274565b5090565b5b808211156200028f57600081600090555060010162000275565b5090565b60006002820490506001821680620002ac57607f821691505b60208210811415620002c357620002c2620002c9565b5b50919050565b7f4e487b7100000000000000000000000000000000000000000000000000000000600052602260045260246000fd5b612f1080620003086000396000f3fe6080604052600436106101355760003560e01c80638da5cb5b116100ab578063c002d23d1161006f578063c002d23d14610405578063c50497ae14610430578063c87b56dd1461045b578063dbddb26a14610498578063e985e9c5146104c3578063f2fde38b1461050057610135565b80638da5cb5b14610332578063901d331d1461035d57806395d89b4114610388578063a22cb465146103b3578063b88d4fde146103dc57610135565b806323b872dd116100fd57806323b872dd146102385780633ccfd60b1461026157806342842e0e146102785780636352211e146102a157806370a08231146102de578063715018a61461031b57610135565b806301173a741461013a57806301ffc9a71461016a57806306fdde03146101a7578063081812fc146101d2578063095ea7b31461020f575b600080fd5b610154600480360381019061014f9190611d8e565b610529565b6040516101619190612ac0565b60405180910390f35b34801561017657600080fd5b50610191600480360381019061018c9190611f35565b6105e4565b60405161019e9190612843565b60405180910390f35b3480156101b357600080fd5b506101bc6106c6565b6040516101c9919061285e565b60405180910390f35b3480156101de57600080fd5b506101f960048036038101906101f49190611f87565b610758565b60405161020691906127dc565b60405180910390f35b34801561021b57600080fd5b5061023660048036038101906102319190611ef9565b6107dd565b005b34801561024457600080fd5b5061025f600480360381019061025a9190611df3565b6108f5565b005b34801561026d57600080fd5b50610276610955565b005b34801561028457600080fd5b5061029f600480360381019061029a9190611df3565b610a1a565b005b3480156102ad57600080fd5b506102c860048036038101906102c39190611f87565b610a3a565b6040516102d591906127dc565b60405180910390f35b3480156102ea57600080fd5b5061030560048036038101906103009190611d8e565b610aec565b6040516103129190612ac0565b60405180910390f35b34801561032757600080fd5b50610330610ba4565b005b34801561033e57600080fd5b50610347610c2c565b60405161035491906127dc565b60405180910390f35b34801561036957600080fd5b50610372610c56565b60405161037f9190612ac0565b60405180910390f35b34801561039457600080fd5b5061039d610c63565b6040516103aa919061285e565b60405180910390f35b3480156103bf57600080fd5b506103da60048036038101906103d59190611ebd565b610cf5565b005b3480156103e857600080fd5b5061040360048036038101906103fe9190611e42565b610d0b565b005b34801561041157600080fd5b5061041a610d6d565b6040516104279190612ac0565b60405180910390f35b34801561043c57600080fd5b50610445610d73565b6040516104529190612ac0565b60405180910390f35b34801561046757600080fd5b50610482600480360381019061047d9190611f87565b610d79565b60405161048f919061285e565b60405180910390f35b3480156104a457600080fd5b506104ad610df5565b6040516104ba919061285e565b60405180910390f35b3480156104cf57600080fd5b506104ea60048036038101906104e59190611db7565b610e83565b6040516104f79190612843565b60405180910390f35b34801561050c57600080fd5b5061052760048036038101906105229190611d8e565b610f17565b005b6000600954341015610570576040517f08c379a000000000000000000000000000000000000000000000000000000000815260040161056790612aa0565b60405180910390fd5b600854600760000154106105b9576040517f08c379a00000000000000000000000000000000000000000000000000000000081526004016105b090612a00565b60405180910390fd5b6105c3600761100f565b60006105cf6007611025565b90506105db8382611033565b80915050919050565b60007f80ac58cd000000000000000000000000000000000000000000000000000000007bffffffffffffffffffffffffffffffffffffffffffffffffffffffff1916827bffffffffffffffffffffffffffffffffffffffffffffffffffffffff191614806106af57507f5b5e139f000000000000000000000000000000000000000000000000000000007bffffffffffffffffffffffffffffffffffffffffffffffffffffffff1916827bffffffffffffffffffffffffffffffffffffffffffffffffffffffff1916145b806106bf57506106be82611201565b5b9050919050565b6060600080546106d590612d05565b80601f016020809104026020016040519081016040528092919081815260200182805461070190612d05565b801561074e5780601f106107235761010080835404028352916020019161074e565b820191906000526020600020905b81548152906001019060200180831161073157829003601f168201915b5050505050905090565b60006107638261126b565b6107a2576040517f08c379a0000000000000000000000000000000000000000000000000000000008152600401610799906129c0565b60405180910390fd5b6004600083815260200190815260200160002060009054906101000a900473ffffffffffffffffffffffffffffffffffffffff169050919050565b60006107e882610a3a565b90508073ffffffffffffffffffffffffffffffffffffffff168373ffffffffffffffffffffffffffffffffffffffff161415610859576040517f08c379a000000000000000000000000000000000000000000000000000000000815260040161085090612a60565b60405180910390fd5b8073ffffffffffffffffffffffffffffffffffffffff166108786112d7565b73ffffffffffffffffffffffffffffffffffffffff1614806108a757506108a6816108a16112d7565b610e83565b5b6108e6576040517f08c379a00000000000000000000000000000000000000000000000000000000081526004016108dd90612940565b60405180910390fd5b6108f083836112df565b505050565b6109066109006112d7565b82611398565b610945576040517f08c379a000000000000000000000000000000000000000000000000000000000815260040161093c90612a80565b60405180910390fd5b610950838383611476565b505050565b61095d6112d7565b73ffffffffffffffffffffffffffffffffffffffff1661097b610c2c565b73ffffffffffffffffffffffffffffffffffffffff16146109d1576040517f08c379a00000000000000000000000000000000000000000000000000000000081526004016109c8906129e0565b60405180910390fd5b3373ffffffffffffffffffffffffffffffffffffffff166108fc479081150290604051600060405180830381858888f19350505050158015610a17573d6000803e3d6000fd5b50565b610a3583838360405180602001604052806000815250610d0b565b505050565b6000806002600084815260200190815260200160002060009054906101000a900473ffffffffffffffffffffffffffffffffffffffff169050600073ffffffffffffffffffffffffffffffffffffffff168173ffffffffffffffffffffffffffffffffffffffff161415610ae3576040517f08c379a0000000000000000000000000000000000000000000000000000000008152600401610ada90612980565b60405180910390fd5b80915050919050565b60008073ffffffffffffffffffffffffffffffffffffffff168273ffffffffffffffffffffffffffffffffffffffff161415610b5d576040517f08c379a0000000000000000000000000000000000000000000000000000000008152600401610b5490612960565b60405180910390fd5b600360008373ffffffffffffffffffffffffffffffffffffffff1673ffffffffffffffffffffffffffffffffffffffff168152602001908152602001600020549050919050565b610bac6112d7565b73ffffffffffffffffffffffffffffffffffffffff16610bca610c2c565b73ffffffffffffffffffffffffffffffffffffffff1614610c20576040517f08c379a0000000000000000000000000000000000000000000000000000000008152600401610c17906129e0565b60405180910390fd5b610c2a60006116d2565b565b6000600660009054906101000a900473ffffffffffffffffffffffffffffffffffffffff16905090565b6000600760000154905090565b606060018054610c7290612d05565b80601f0160208091040260200160405190810160405280929190818152602001828054610c9e90612d05565b8015610ceb5780601f10610cc057610100808354040283529160200191610ceb565b820191906000526020600020905b815481529060010190602001808311610cce57829003601f168201915b5050505050905090565b610d07610d006112d7565b8383611798565b5050565b610d1c610d166112d7565b83611398565b610d5b576040517f08c379a0000000000000000000000000000000000000000000000000000000008152600401610d5290612a80565b60405180910390fd5b610d6784848484611905565b50505050565b60095481565b60085481565b6060610d848261126b565b610dc3576040517f08c379a0000000000000000000000000000000000000000000000000000000008152600401610dba90612a40565b60405180910390fd5b600a610dce83611961565b604051602001610ddf9291906127ad565b6040516020818303038152906040529050919050565b600a8054610e0290612d05565b80601f0160208091040260200160405190810160405280929190818152602001828054610e2e90612d05565b8015610e7b5780601f10610e5057610100808354040283529160200191610e7b565b820191906000526020600020905b815481529060010190602001808311610e5e57829003601f168201915b505050505081565b6000600560008473ffffffffffffffffffffffffffffffffffffffff1673ffffffffffffffffffffffffffffffffffffffff16815260200190815260200160002060008373ffffffffffffffffffffffffffffffffffffffff1673ffffffffffffffffffffffffffffffffffffffff16815260200190815260200160002060009054906101000a900460ff16905092915050565b610f1f6112d7565b73ffffffffffffffffffffffffffffffffffffffff16610f3d610c2c565b73ffffffffffffffffffffffffffffffffffffffff1614610f93576040517f08c379a0000000000000000000000000000000000000000000000000000000008152600401610f8a906129e0565b60405180910390fd5b600073ffffffffffffffffffffffffffffffffffffffff168173ffffffffffffffffffffffffffffffffffffffff161415611003576040517f08c379a0000000000000000000000000000000000000000000000000000000008152600401610ffa906128a0565b60405180910390fd5b61100c816116d2565b50565b6001816000016000828254019250508190555050565b600081600001549050919050565b600073ffffffffffffffffffffffffffffffffffffffff168273ffffffffffffffffffffffffffffffffffffffff1614156110a3576040517f08c379a000000000000000000000000000000000000000000000000000000000815260040161109a906129a0565b60405180910390fd5b6110ac8161126b565b156110ec576040517f08c379a00000000000000000000000000000000000000000000000000000000081526004016110e3906128c0565b60405180910390fd5b6110f860008383611b0e565b6001600360008473ffffffffffffffffffffffffffffffffffffffff1673ffffffffffffffffffffffffffffffffffffffff16815260200190815260200160002060008282546111489190612b94565b92505081905550816002600083815260200190815260200160002060006101000a81548173ffffffffffffffffffffffffffffffffffffffff021916908373ffffffffffffffffffffffffffffffffffffffff160217905550808273ffffffffffffffffffffffffffffffffffffffff16600073ffffffffffffffffffffffffffffffffffffffff167fddf252ad1be2c89b69c2b068fc378daa952ba7f163c4a11628f55a4df523b3ef60405160405180910390a45050565b60007f01ffc9a7000000000000000000000000000000000000000000000000000000007bffffffffffffffffffffffffffffffffffffffffffffffffffffffff1916827bffffffffffffffffffffffffffffffffffffffffffffffffffffffff1916149050919050565b60008073ffffffffffffffffffffffffffffffffffffffff166002600084815260200190815260200160002060009054906101000a900473ffffffffffffffffffffffffffffffffffffffff1673ffffffffffffffffffffffffffffffffffffffff1614159050919050565b600033905090565b816004600083815260200190815260200160002060006101000a81548173ffffffffffffffffffffffffffffffffffffffff021916908373ffffffffffffffffffffffffffffffffffffffff160217905550808273ffffffffffffffffffffffffffffffffffffffff1661135283610a3a565b73ffffffffffffffffffffffffffffffffffffffff167f8c5be1e5ebec7d5bd14f71427d1e84f3dd0314c0f7b2291e5b200ac8c7c3b92560405160405180910390a45050565b60006113a38261126b565b6113e2576040517f08c379a00000000000000000000000000000000000000000000000000000000081526004016113d990612920565b60405180910390fd5b60006113ed83610a3a565b90508073ffffffffffffffffffffffffffffffffffffffff168473ffffffffffffffffffffffffffffffffffffffff16148061145c57508373ffffffffffffffffffffffffffffffffffffffff1661144484610758565b73ffffffffffffffffffffffffffffffffffffffff16145b8061146d575061146c8185610e83565b5b91505092915050565b8273ffffffffffffffffffffffffffffffffffffffff1661149682610a3a565b73ffffffffffffffffffffffffffffffffffffffff16146114ec576040517f08c379a00000000000000000000000000000000000000000000000000000000081526004016114e390612a20565b60405180910390fd5b600073ffffffffffffffffffffffffffffffffffffffff168273ffffffffffffffffffffffffffffffffffffffff16141561155c576040517f08c379a0000000000000000000000000000000000000000000000000000000008152600401611553906128e0565b60405180910390fd5b611567838383611b0e565b6115726000826112df565b6001600360008573ffffffffffffffffffffffffffffffffffffffff1673ffffffffffffffffffffffffffffffffffffffff16815260200190815260200160002060008282546115c29190612c1b565b925050819055506001600360008473ffffffffffffffffffffffffffffffffffffffff1673ffffffffffffffffffffffffffffffffffffffff16815260200190815260200160002060008282546116199190612b94565b92505081905550816002600083815260200190815260200160002060006101000a81548173ffffffffffffffffffffffffffffffffffffffff021916908373ffffffffffffffffffffffffffffffffffffffff160217905550808273ffffffffffffffffffffffffffffffffffffffff168473ffffffffffffffffffffffffffffffffffffffff167fddf252ad1be2c89b69c2b068fc378daa952ba7f163c4a11628f55a4df523b3ef60405160405180910390a4505050565b6000600660009054906101000a900473ffffffffffffffffffffffffffffffffffffffff16905081600660006101000a81548173ffffffffffffffffffffffffffffffffffffffff021916908373ffffffffffffffffffffffffffffffffffffffff1602179055508173ffffffffffffffffffffffffffffffffffffffff168173ffffffffffffffffffffffffffffffffffffffff167f8be0079c531659141344cd1fd0a4f28419497f9722a3daafe3b4186f6b6457e060405160405180910390a35050565b8173ffffffffffffffffffffffffffffffffffffffff168373ffffffffffffffffffffffffffffffffffffffff161415611807576040517f08c379a00000000000000000000000000000000000000000000000000000000081526004016117fe90612900565b60405180910390fd5b80600560008573ffffffffffffffffffffffffffffffffffffffff1673ffffffffffffffffffffffffffffffffffffffff16815260200190815260200160002060008473ffffffffffffffffffffffffffffffffffffffff1673ffffffffffffffffffffffffffffffffffffffff16815260200190815260200160002060006101000a81548160ff0219169083151502179055508173ffffffffffffffffffffffffffffffffffffffff168373ffffffffffffffffffffffffffffffffffffffff167f17307eab39ab6107e8899845ad3d59bd9653f200f220920489ca2b5937696c31836040516118f89190612843565b60405180910390a3505050565b611910848484611476565b61191c84848484611b13565b61195b576040517f08c379a000000000000000000000000000000000000000000000000000000000815260040161195290612880565b60405180910390fd5b50505050565b606060008214156119a9576040518060400160405280600181526020017f30000000000000000000000000000000000000000000000000000000000000008152509050611b09565b600082905060005b600082146119db5780806119c490612d37565b915050600a826119d49190612bea565b91506119b1565b60008167ffffffffffffffff811115611a1d577f4e487b7100000000000000000000000000000000000000000000000000000000600052604160045260246000fd5b6040519080825280601f01601f191660200182016040528015611a4f5781602001600182028036833780820191505090505b5090505b60008514611b0257600182611a689190612c1b565b9150600a85611a779190612d80565b6030611a839190612b94565b60f81b818381518110611abf577f4e487b7100000000000000000000000000000000000000000000000000000000600052603260045260246000fd5b60200101907effffffffffffffffffffffffffffffffffffffffffffffffffffffffffffff1916908160001a905350600a85611afb9190612bea565b9450611a53565b8093505050505b919050565b505050565b6000611b348473ffffffffffffffffffffffffffffffffffffffff16611caa565b15611c9d578373ffffffffffffffffffffffffffffffffffffffff1663150b7a02611b5d6112d7565b8786866040518563ffffffff1660e01b8152600401611b7f94939291906127f7565b602060405180830381600087803b158015611b9957600080fd5b505af1925050508015611bca57506040513d601f19601f82011682018060405250810190611bc79190611f5e565b60015b611c4d573d8060008114611bfa576040519150601f19603f3d011682016040523d82523d6000602084013e611bff565b606091505b50600081511415611c45576040517f08c379a0000000000000000000000000000000000000000000000000000000008152600401611c3c90612880565b60405180910390fd5b805181602001fd5b63150b7a0260e01b7bffffffffffffffffffffffffffffffffffffffffffffffffffffffff1916817bffffffffffffffffffffffffffffffffffffffffffffffffffffffff191614915050611ca2565b600190505b949350505050565b600080823b905060008111915050919050565b6000611cd0611ccb84612b0c565b612adb565b905082815260208101848484011115611ce857600080fd5b611cf3848285612cc3565b509392505050565b600081359050611d0a81612e7e565b92915050565b600081359050611d1f81612e95565b92915050565b600081359050611d3481612eac565b92915050565b600081519050611d4981612eac565b92915050565b600082601f830112611d6057600080fd5b8135611d70848260208601611cbd565b91505092915050565b600081359050611d8881612ec3565b92915050565b600060208284031215611da057600080fd5b6000611dae84828501611cfb565b91505092915050565b60008060408385031215611dca57600080fd5b6000611dd885828601611cfb565b9250506020611de985828601611cfb565b9150509250929050565b600080600060608486031215611e0857600080fd5b6000611e1686828701611cfb565b9350506020611e2786828701611cfb565b9250506040611e3886828701611d79565b9150509250925092565b60008060008060808587031215611e5857600080fd5b6000611e6687828801611cfb565b9450506020611e7787828801611cfb565b9350506040611e8887828801611d79565b925050606085013567ffffffffffffffff811115611ea557600080fd5b611eb187828801611d4f565b91505092959194509250565b60008060408385031215611ed057600080fd5b6000611ede85828601611cfb565b9250506020611eef85828601611d10565b9150509250929050565b60008060408385031215611f0c57600080fd5b6000611f1a85828601611cfb565b9250506020611f2b85828601611d79565b9150509250929050565b600060208284031215611f4757600080fd5b6000611f5584828501611d25565b91505092915050565b600060208284031215611f7057600080fd5b6000611f7e84828501611d3a565b91505092915050565b600060208284031215611f9957600080fd5b6000611fa784828501611d79565b91505092915050565b611fb981612c4f565b82525050565b611fc881612c61565b82525050565b6000611fd982612b51565b611fe38185612b67565b9350611ff3818560208601612cd2565b611ffc81612e6d565b840191505092915050565b600061201282612b5c565b61201c8185612b78565b935061202c818560208601612cd2565b61203581612e6d565b840191505092915050565b600061204b82612b5c565b6120558185612b89565b9350612065818560208601612cd2565b80840191505092915050565b6000815461207e81612d05565b6120888186612b89565b945060018216600081146120a357600181146120b4576120e7565b60ff198316865281860193506120e7565b6120bd85612b3c565b60005b838110156120df578154818901526001820191506020810190506120c0565b838801955050505b50505092915050565b60006120fd603283612b78565b91507f4552433732313a207472616e7366657220746f206e6f6e20455243373231526560008301527f63656976657220696d706c656d656e74657200000000000000000000000000006020830152604082019050919050565b6000612163602683612b78565b91507f4f776e61626c653a206e6577206f776e657220697320746865207a65726f206160008301527f64647265737300000000000000000000000000000000000000000000000000006020830152604082019050919050565b60006121c9601c83612b78565b91507f4552433732313a20746f6b656e20616c7265616479206d696e746564000000006000830152602082019050919050565b6000612209602483612b78565b91507f4552433732313a207472616e7366657220746f20746865207a65726f2061646460008301527f72657373000000000000000000000000000000000000000000000000000000006020830152604082019050919050565b600061226f601983612b78565b91507f4552433732313a20617070726f766520746f2063616c6c6572000000000000006000830152602082019050919050565b60006122af602c83612b78565b91507f4552433732313a206f70657261746f7220717565727920666f72206e6f6e657860008301527f697374656e7420746f6b656e00000000000000000000000000000000000000006020830152604082019050919050565b6000612315603883612b78565b91507f4552433732313a20617070726f76652063616c6c6572206973206e6f74206f7760008301527f6e6572206e6f7220617070726f76656420666f7220616c6c00000000000000006020830152604082019050919050565b600061237b602a83612b78565b91507f4552433732313a2062616c616e636520717565727920666f7220746865207a6560008301527f726f2061646472657373000000000000000000000000000000000000000000006020830152604082019050919050565b60006123e1602983612b78565b91507f4552433732313a206f776e657220717565727920666f72206e6f6e657869737460008301527f656e7420746f6b656e00000000000000000000000000000000000000000000006020830152604082019050919050565b6000612447602083612b78565b91507f4552433732313a206d696e7420746f20746865207a65726f20616464726573736000830152602082019050919050565b6000612487602c83612b78565b91507f4552433732313a20617070726f76656420717565727920666f72206e6f6e657860008301527f697374656e7420746f6b656e00000000000000000000000000000000000000006020830152604082019050919050565b60006124ed600583612b89565b91507f2e6a736f6e0000000000000000000000000000000000000000000000000000006000830152600582019050919050565b600061252d602083612b78565b91507f4f776e61626c653a2063616c6c6572206973206e6f7420746865206f776e65726000830152602082019050919050565b600061256d602683612b78565b91507f4d6178206e756d626572206f6620746f6b656e732068617665206265656e206d60008301527f696e7465642100000000000000000000000000000000000000000000000000006020830152604082019050919050565b60006125d3602983612b78565b91507f4552433732313a207472616e73666572206f6620746f6b656e2074686174206960008301527f73206e6f74206f776e00000000000000000000000000000000000000000000006020830152604082019050919050565b6000612639602f83612b78565b91507f4552433732314d657461646174613a2055524920717565727920666f72206e6f60008301527f6e6578697374656e7420746f6b656e00000000000000000000000000000000006020830152604082019050919050565b600061269f602183612b78565b91507f4552433732313a20617070726f76616c20746f2063757272656e74206f776e6560008301527f72000000000000000000000000000000000000000000000000000000000000006020830152604082019050919050565b6000612705603183612b78565b91507f4552433732313a207472616e736665722063616c6c6572206973206e6f74206f60008301527f776e6572206e6f7220617070726f7665640000000000000000000000000000006020830152604082019050919050565b600061276b601483612b78565b91507f4e6f7420656e6f756768204554482073656e74210000000000000000000000006000830152602082019050919050565b6127a781612cb9565b82525050565b60006127b98285612071565b91506127c58284612040565b91506127d0826124e0565b91508190509392505050565b60006020820190506127f16000830184611fb0565b92915050565b600060808201905061280c6000830187611fb0565b6128196020830186611fb0565b612826604083018561279e565b81810360608301526128388184611fce565b905095945050505050565b60006020820190506128586000830184611fbf565b92915050565b600060208201905081810360008301526128788184612007565b905092915050565b60006020820190508181036000830152612899816120f0565b9050919050565b600060208201905081810360008301526128b981612156565b9050919050565b600060208201905081810360008301526128d9816121bc565b9050919050565b600060208201905081810360008301526128f9816121fc565b9050919050565b6000602082019050818103600083015261291981612262565b9050919050565b60006020820190508181036000830152612939816122a2565b9050919050565b6000602082019050818103600083015261295981612308565b9050919050565b600060208201905081810360008301526129798161236e565b9050919050565b60006020820190508181036000830152612999816123d4565b9050919050565b600060208201905081810360008301526129b98161243a565b9050919050565b600060208201905081810360008301526129d98161247a565b9050919050565b600060208201905081810360008301526129f981612520565b9050919050565b60006020820190508181036000830152612a1981612560565b9050919050565b60006020820190508181036000830152612a39816125c6565b9050919050565b60006020820190508181036000830152612a598161262c565b9050919050565b60006020820190508181036000830152612a7981612692565b9050919050565b60006020820190508181036000830152612a99816126f8565b9050919050565b60006020820190508181036000830152612ab98161275e565b9050919050565b6000602082019050612ad5600083018461279e565b92915050565b6000604051905081810181811067ffffffffffffffff82111715612b0257612b01612e3e565b5b8060405250919050565b600067ffffffffffffffff821115612b2757612b26612e3e565b5b601f19601f8301169050602081019050919050565b60008190508160005260206000209050919050565b600081519050919050565b600081519050919050565b600082825260208201905092915050565b600082825260208201905092915050565b600081905092915050565b6000612b9f82612cb9565b9150612baa83612cb9565b9250827fffffffffffffffffffffffffffffffffffffffffffffffffffffffffffffffff03821115612bdf57612bde612db1565b5b828201905092915050565b6000612bf582612cb9565b9150612c0083612cb9565b925082612c1057612c0f612de0565b5b828204905092915050565b6000612c2682612cb9565b9150612c3183612cb9565b925082821015612c4457612c43612db1565b5b828203905092915050565b6000612c5a82612c99565b9050919050565b60008115159050919050565b60007fffffffff0000000000000000000000000000000000000000000000000000000082169050919050565b600073ffffffffffffffffffffffffffffffffffffffff82169050919050565b6000819050919050565b82818337600083830152505050565b60005b83811015612cf0578082015181840152602081019050612cd5565b83811115612cff576000848401525b50505050565b60006002820490506001821680612d1d57607f821691505b60208210811415612d3157612d30612e0f565b5b50919050565b6000612d4282612cb9565b91507fffffffffffffffffffffffffffffffffffffffffffffffffffffffffffffffff821415612d7557612d74612db1565b5b600182019050919050565b6000612d8b82612cb9565b9150612d9683612cb9565b925082612da657612da5612de0565b5b828206905092915050565b7f4e487b7100000000000000000000000000000000000000000000000000000000600052601160045260246000fd5b7f4e487b7100000000000000000000000000000000000000000000000000000000600052601260045260246000fd5b7f4e487b7100000000000000000000000000000000000000000000000000000000600052602260045260246000fd5b7f4e487b7100000000000000000000000000000000000000000000000000000000600052604160045260246000fd5b6000601f19601f8301169050919050565b612e8781612c4f565b8114612e9257600080fd5b50565b612e9e81612c61565b8114612ea957600080fd5b50565b612eb581612c6d565b8114612ec057600080fd5b50565b612ecc81612cb9565b8114612ed757600080fd5b5056fea2646970667358221220ab6c7bdb06ef8c4cc592cb705cc03e4f163849126f07ffb663522493f1ba620b64736f6c6343000800003368747470733a2f2f697066732e696f2f697066732f516d5577704a5274535232773737453262457a734c3856426335706772473775756f5839357956354250564d766d2f",
  "linkReferences": {},
  "deployedLinkReferences": {}
}