{
  "_format": "hh-sol-artifact-1",
  "contractName": "TokenStaker",
  "sourceName": "contracts/TokenStaker.sol",
  "abi": [
    {
      "inputs": [
        {
          "internalType": "contract IERC721",
          "name": "_stakedNFT",
          "type": "address"
        }
      ],
      "stateMutability": "nonpayable",
      "type": "constructor"
    },
    {
      "anonymous": false,
      "inputs": [
        {
          "indexed": true,
          "internalType": "address",
          "name": "previousOwner",
          "type": "address"
        },
        {
          "indexed": true,
          "internalType": "address",
          "name": "newOwner",
          "type": "address"
        }
      ],
      "name": "OwnershipTransferred",
      "type": "event"
    },
    {
      "anonymous": false,
      "inputs": [
        {
          "indexed": false,
          "internalType": "address",
          "name": "owner",
          "type": "address"
        },
        {
          "indexed": false,
          "internalType": "uint256",
          "name": "tokenId",
          "type": "uint256"
        }
      ],
      "name": "Staked",
      "type": "event"
    },
    {
      "anonymous": false,
      "inputs": [
        {
          "indexed": false,
          "internalType": "address",
          "name": "owner",
          "type": "address"
        },
        {
          "indexed": false,
          "internalType": "uint256",
          "name": "amount",
          "type": "uint256"
        }
      ],
      "name": "Unstaked",
      "type": "event"
    },
    {
      "inputs": [
        {
          "internalType": "uint256",
          "name": "_stakeTime",
          "type": "uint256"
        }
      ],
      "name": "changeMinStakeTime",
      "outputs": [],
      "stateMutability": "nonpayable",
      "type": "function"
    },
    {
      "inputs": [],
      "name": "getParticipantList",
      "outputs": [
        {
          "components": [
            {
              "internalType": "address",
              "name": "addr",
              "type": "address"
            },
            {
              "internalType": "uint256",
              "name": "tickets",
              "type": "uint256"
            }
          ],
          "internalType": "struct ParticipantLib.Participant[]",
          "name": "",
          "type": "tuple[]"
        },
        {
          "internalType": "uint256",
          "name": "",
          "type": "uint256"
        }
      ],
      "stateMutability": "view",
      "type": "function"
    },
    {
      "inputs": [
        {
          "internalType": "address",
          "name": "_user",
          "type": "address"
        }
      ],
      "name": "getUserStakedTokens",
      "outputs": [
        {
          "internalType": "uint256[]",
          "name": "",
          "type": "uint256[]"
        }
      ],
      "stateMutability": "view",
      "type": "function"
    },
    {
      "inputs": [],
      "name": "minStakeTime",
      "outputs": [
        {
          "internalType": "uint256",
          "name": "",
          "type": "uint256"
        }
      ],
      "stateMutability": "view",
      "type": "function"
    },
    {
      "inputs": [
        {
          "internalType": "address",
          "name": "operator",
          "type": "address"
        },
        {
          "internalType": "address",
          "name": "from",
          "type": "address"
        },
        {
          "internalType": "uint256",
          "name": "tokenId",
          "type": "uint256"
        },
        {
          "internalType": "bytes",
          "name": "data",
          "type": "bytes"
        }
      ],
      "name": "onERC721Received",
      "outputs": [
        {
          "internalType": "bytes4",
          "name": "",
          "type": "bytes4"
        }
      ],
      "stateMutability": "pure",
      "type": "function"
    },
    {
      "inputs": [],
      "name": "owner",
      "outputs": [
        {
          "internalType": "address",
          "name": "",
          "type": "address"
        }
      ],
      "stateMutability": "view",
      "type": "function"
    },
    {
      "inputs": [],
      "name": "renounceOwnership",
      "outputs": [],
      "stateMutability": "nonpayable",
      "type": "function"
    },
    {
      "inputs": [
        {
          "internalType": "uint256",
          "name": "_tokenId",
          "type": "uint256"
        }
      ],
      "name": "stake",
      "outputs": [],
      "stateMutability": "nonpayable",
      "type": "function"
    },
    {
      "inputs": [
        {
          "internalType": "uint256[]",
          "name": "_tokenIds",
          "type": "uint256[]"
        }
      ],
      "name": "stakeBatch",
      "outputs": [],
      "stateMutability": "nonpayable",
      "type": "function"
    },
    {
      "inputs": [
        {
          "internalType": "uint256",
          "name": "",
          "type": "uint256"
        }
      ],
      "name": "stakers",
      "outputs": [
        {
          "internalType": "address",
          "name": "",
          "type": "address"
        }
      ],
      "stateMutability": "view",
      "type": "function"
    },
    {
      "inputs": [
        {
          "internalType": "address",
          "name": "",
          "type": "address"
        }
      ],
      "name": "stakes",
      "outputs": [
        {
          "internalType": "bool",
          "name": "isValue",
          "type": "bool"
        },
        {
          "internalType": "uint256",
          "name": "stakerIndex",
          "type": "uint256"
        }
      ],
      "stateMutability": "view",
      "type": "function"
    },
    {
      "inputs": [
        {
          "internalType": "uint256",
          "name": "",
          "type": "uint256"
        }
      ],
      "name": "tokenStakedTime",
      "outputs": [
        {
          "internalType": "uint256",
          "name": "",
          "type": "uint256"
        }
      ],
      "stateMutability": "view",
      "type": "function"
    },
    {
      "inputs": [
        {
          "internalType": "address",
          "name": "newOwner",
          "type": "address"
        }
      ],
      "name": "transferOwnership",
      "outputs": [],
      "stateMutability": "nonpayable",
      "type": "function"
    },
    {
      "inputs": [
        {
          "internalType": "uint256",
          "name": "_tokenId",
          "type": "uint256"
        }
      ],
      "name": "unstake",
      "outputs": [],
      "stateMutability": "nonpayable",
      "type": "function"
    },
    {
      "inputs": [
        {
          "internalType": "uint256[]",
          "name": "_tokenIds",
          "type": "uint256[]"
        }
      ],
      "name": "unstakeBatch",
      "outputs": [],
      "stateMutability": "nonpayable",
      "type": "function"
    }
  ],
  "bytecode": "0x6080604052620d2f006005553480156200001857600080fd5b5060405162001ece38038062001ece83398181016040528101906200003e919062000189565b6200005e62000052620000a660201b60201c565b620000ae60201b60201c565b80600160006101000a81548173ffffffffffffffffffffffffffffffffffffffff021916908373ffffffffffffffffffffffffffffffffffffffff1602179055505062000217565b600033905090565b60008060009054906101000a900473ffffffffffffffffffffffffffffffffffffffff169050816000806101000a81548173ffffffffffffffffffffffffffffffffffffffff021916908373ffffffffffffffffffffffffffffffffffffffff1602179055508173ffffffffffffffffffffffffffffffffffffffff168173ffffffffffffffffffffffffffffffffffffffff167f8be0079c531659141344cd1fd0a4f28419497f9722a3daafe3b4186f6b6457e060405160405180910390a35050565b6000815190506200018381620001fd565b92915050565b6000602082840312156200019c57600080fd5b6000620001ac8482850162000172565b91505092915050565b6000620001c282620001dd565b9050919050565b6000620001d682620001b5565b9050919050565b600073ffffffffffffffffffffffffffffffffffffffff82169050919050565b6200020881620001c9565b81146200021457600080fd5b50565b611ca780620002276000396000f3fe608060405234801561001057600080fd5b50600436106100f55760003560e01c8063a694fc3a11610097578063ec70a83b11610066578063ec70a83b1461025d578063ed214fff1461028d578063f2fde38b146102ac578063fd5e6dd1146102c8576100f5565b8063a694fc3a146101d9578063ae1a01a2146101f5578063e64a21f314610225578063eb2d070b14610241576100f5565b8063230f436d116100d3578063230f436d146101795780632e17de7814610195578063715018a6146101b15780638da5cb5b146101bb576100f5565b8063150b7a02146100fa57806316934fc41461012a5780631f7678ce1461015b575b600080fd5b610114600480360381019061010f91906114c7565b6102f8565b6040516101219190611928565b60405180910390f35b610144600480360381019061013f919061149e565b61030d565b6040516101529291906118ff565b60405180910390f35b61016361033e565b60405161017091906119a3565b60405180910390f35b610193600480360381019061018e9190611547565b610344565b005b6101af60048036038101906101aa9190611588565b6103b1565b005b6101b9610407565b005b6101c361048f565b6040516101d09190611832565b60405180910390f35b6101f360048036038101906101ee9190611588565b6104b8565b005b61020f600480360381019061020a919061149e565b6104c5565b60405161021c91906118dd565b60405180910390f35b61023f600480360381019061023a9190611547565b610565565b005b61025b60048036038101906102569190611588565b610622565b005b61027760048036038101906102729190611588565b6106a8565b60405161028491906119a3565b60405180910390f35b6102956106c0565b6040516102a39291906118ad565b60405180910390f35b6102c660048036038101906102c1919061149e565b6109c0565b005b6102e260048036038101906102dd9190611588565b610ab8565b6040516102ef9190611832565b60405180910390f35b600063150b7a0260e01b905095945050505050565b60026020528060005260406000206000915090508060010160009054906101000a900460ff16908060020154905082565b60055481565b60005b81518110156103ad5761039a3383838151811061038d577f4e487b7100000000000000000000000000000000000000000000000000000000600052603260045260246000fd5b6020026020010151610af7565b80806103a590611b9c565b915050610347565b5050565b6103bb3382610cf1565b6103fa576040517f08c379a00000000000000000000000000000000000000000000000000000000081526004016103f190611963565b60405180910390fd5b6104043382610dc0565b50565b61040f61125a565b73ffffffffffffffffffffffffffffffffffffffff1661042d61048f565b73ffffffffffffffffffffffffffffffffffffffff1614610483576040517f08c379a000000000000000000000000000000000000000000000000000000000815260040161047a90611983565b60405180910390fd5b61048d6000611262565b565b60008060009054906101000a900473ffffffffffffffffffffffffffffffffffffffff16905090565b6104c23382610af7565b50565b60606000600260008473ffffffffffffffffffffffffffffffffffffffff1673ffffffffffffffffffffffffffffffffffffffff16815260200190815260200160002060000180548060200260200160405190810160405280929190818152602001828054801561055557602002820191906000526020600020905b815481526020019060010190808311610541575b5050505050905080915050919050565b60005b815181101561061e576105bb338383815181106105ae577f4e487b7100000000000000000000000000000000000000000000000000000000600052603260045260246000fd5b6020026020010151610cf1565b1561060b5761060a338383815181106105fd577f4e487b7100000000000000000000000000000000000000000000000000000000600052603260045260246000fd5b6020026020010151610dc0565b5b808061061690611b9c565b915050610568565b5050565b61062a61125a565b73ffffffffffffffffffffffffffffffffffffffff1661064861048f565b73ffffffffffffffffffffffffffffffffffffffff161461069e576040517f08c379a000000000000000000000000000000000000000000000000000000000815260040161069590611983565b60405180910390fd5b8060058190555050565b60036020528060005260406000206000915090505481565b606060008060048054905067ffffffffffffffff81111561070a577f4e487b7100000000000000000000000000000000000000000000000000000000600052604160045260246000fd5b60405190808252806020026020018201604052801561074357816020015b610730611326565b8152602001906001900390816107285790505b509050600080600090505b6004805490508110156109b3576000600260006004848154811061079b577f4e487b7100000000000000000000000000000000000000000000000000000000600052603260045260246000fd5b9060005260206000200160009054906101000a900473ffffffffffffffffffffffffffffffffffffffff1673ffffffffffffffffffffffffffffffffffffffff1673ffffffffffffffffffffffffffffffffffffffff1681526020019081526020016000209050600080600090505b82600001805490508110156108af576000836000018281548110610857577f4e487b7100000000000000000000000000000000000000000000000000000000600052603260045260246000fd5b906000526020600020015490506005546003600083815260200190815260200160002054426108869190611af4565b111561089b57828061089790611b9c565b9350505b5080806108a790611b9c565b91505061080a565b5080846108bc9190611a9e565b93506000604051806040016040528060048681548110610905577f4e487b7100000000000000000000000000000000000000000000000000000000600052603260045260246000fd5b9060005260206000200160009054906101000a900473ffffffffffffffffffffffffffffffffffffffff1673ffffffffffffffffffffffffffffffffffffffff1681526020018460000180549050815250905080868581518110610992577f4e487b7100000000000000000000000000000000000000000000000000000000600052603260045260246000fd5b602002602001018190525050505080806109ab90611b9c565b91505061074e565b5081819350935050509091565b6109c861125a565b73ffffffffffffffffffffffffffffffffffffffff166109e661048f565b73ffffffffffffffffffffffffffffffffffffffff1614610a3c576040517f08c379a0000000000000000000000000000000000000000000000000000000008152600401610a3390611983565b60405180910390fd5b600073ffffffffffffffffffffffffffffffffffffffff168173ffffffffffffffffffffffffffffffffffffffff161415610aac576040517f08c379a0000000000000000000000000000000000000000000000000000000008152600401610aa390611943565b60405180910390fd5b610ab581611262565b50565b60048181548110610ac857600080fd5b906000526020600020016000915054906101000a900473ffffffffffffffffffffffffffffffffffffffff1681565b6000600260008473ffffffffffffffffffffffffffffffffffffffff1673ffffffffffffffffffffffffffffffffffffffff16815260200190815260200160002090504260036000848152602001908152602001600020819055508060010160009054906101000a900460ff16610bf75760048054905081600201819055506004839080600181540180825580915050600190039060005260206000200160009091909190916101000a81548173ffffffffffffffffffffffffffffffffffffffff021916908373ffffffffffffffffffffffffffffffffffffffff16021790555060018160010160006101000a81548160ff0219169083151502179055505b80600001829080600181540180825580915050600190039060005260206000200160009091909190915055600160009054906101000a900473ffffffffffffffffffffffffffffffffffffffff1673ffffffffffffffffffffffffffffffffffffffff166342842e0e8430856040518463ffffffff1660e01b8152600401610c819392919061184d565b600060405180830381600087803b158015610c9b57600080fd5b505af1158015610caf573d6000803e3d6000fd5b505050507f9e71bc8eea02a63969f509818f2dafb9254532904319f9dbda79b67bd34a5f3d8383604051610ce4929190611884565b60405180910390a1505050565b600080600260008573ffffffffffffffffffffffffffffffffffffffff1673ffffffffffffffffffffffffffffffffffffffff168152602001908152602001600020905060005b8160000180549050811015610db35783826000018281548110610d84577f4e487b7100000000000000000000000000000000000000000000000000000000600052603260045260246000fd5b90600052602060002001541415610da057600192505050610dba565b8080610dab90611b9c565b915050610d38565b5060009150505b92915050565b6000600260008473ffffffffffffffffffffffffffffffffffffffff1673ffffffffffffffffffffffffffffffffffffffff1681526020019081526020016000209050600360008381526020019081526020016000206000905560018160000180549050141561101257600081600201549050600260008573ffffffffffffffffffffffffffffffffffffffff1673ffffffffffffffffffffffffffffffffffffffff16815260200190815260200160002060008082016000610e839190611356565b6001820160006101000a81549060ff021916905560028201600090555050600060048054905090506004600182610eba9190611af4565b81548110610ef1577f4e487b7100000000000000000000000000000000000000000000000000000000600052603260045260246000fd5b9060005260206000200160009054906101000a900473ffffffffffffffffffffffffffffffffffffffff1660048381548110610f56577f4e487b7100000000000000000000000000000000000000000000000000000000600052603260045260246000fd5b9060005260206000200160006101000a81548173ffffffffffffffffffffffffffffffffffffffff021916908373ffffffffffffffffffffffffffffffffffffffff1602179055506004805480610fd6577f4e487b7100000000000000000000000000000000000000000000000000000000600052603160045260246000fd5b6001900381819060005260206000200160006101000a81549073ffffffffffffffffffffffffffffffffffffffff02191690559055505061118b565b600080600090505b826000018054905081101561108e5783836000018281548110611066577f4e487b7100000000000000000000000000000000000000000000000000000000600052603260045260246000fd5b9060005260206000200154141561107b578091505b808061108690611b9c565b91505061101a565b50600082600001805490509050826000016001826110ac9190611af4565b815481106110e3577f4e487b7100000000000000000000000000000000000000000000000000000000600052603260045260246000fd5b906000526020600020015483600001838154811061112a577f4e487b7100000000000000000000000000000000000000000000000000000000600052603260045260246000fd5b906000526020600020018190555082600001805480611172577f4e487b7100000000000000000000000000000000000000000000000000000000600052603160045260246000fd5b6001900381819060005260206000200160009055905550505b600160009054906101000a900473ffffffffffffffffffffffffffffffffffffffff1673ffffffffffffffffffffffffffffffffffffffff166342842e0e3085856040518463ffffffff1660e01b81526004016111ea9392919061184d565b600060405180830381600087803b15801561120457600080fd5b505af1158015611218573d6000803e3d6000fd5b505050507f0f5bb82176feb1b5e747e28471aa92156a04d9f3ab9f45f28e2d704232b93f75838360405161124d929190611884565b60405180910390a1505050565b600033905090565b60008060009054906101000a900473ffffffffffffffffffffffffffffffffffffffff169050816000806101000a81548173ffffffffffffffffffffffffffffffffffffffff021916908373ffffffffffffffffffffffffffffffffffffffff1602179055508173ffffffffffffffffffffffffffffffffffffffff168173ffffffffffffffffffffffffffffffffffffffff167f8be0079c531659141344cd1fd0a4f28419497f9722a3daafe3b4186f6b6457e060405160405180910390a35050565b6040518060400160405280600073ffffffffffffffffffffffffffffffffffffffff168152602001600081525090565b50805460008255906000526020600020908101906113749190611377565b50565b5b80821115611390576000816000905550600101611378565b5090565b60006113a76113a2846119ef565b6119be565b905080838252602082019050828560208602820111156113c657600080fd5b60005b858110156113f657816113dc8882611489565b8452602084019350602083019250506001810190506113c9565b5050509392505050565b60008135905061140f81611c43565b92915050565b600082601f83011261142657600080fd5b8135611436848260208601611394565b91505092915050565b60008083601f84011261145157600080fd5b8235905067ffffffffffffffff81111561146a57600080fd5b60208301915083600182028301111561148257600080fd5b9250929050565b60008135905061149881611c5a565b92915050565b6000602082840312156114b057600080fd5b60006114be84828501611400565b91505092915050565b6000806000806000608086880312156114df57600080fd5b60006114ed88828901611400565b95505060206114fe88828901611400565b945050604061150f88828901611489565b935050606086013567ffffffffffffffff81111561152c57600080fd5b6115388882890161143f565b92509250509295509295909350565b60006020828403121561155957600080fd5b600082013567ffffffffffffffff81111561157357600080fd5b61157f84828501611415565b91505092915050565b60006020828403121561159a57600080fd5b60006115a884828501611489565b91505092915050565b60006115bd83836117e5565b60408301905092915050565b60006115d58383611814565b60208301905092915050565b6115ea81611b28565b82525050565b6115f981611b28565b82525050565b600061160a82611a3b565b6116148185611a6b565b935061161f83611a1b565b8060005b8381101561165057815161163788826115b1565b975061164283611a51565b925050600181019050611623565b5085935050505092915050565b600061166882611a46565b6116728185611a7c565b935061167d83611a2b565b8060005b838110156116ae57815161169588826115c9565b97506116a083611a5e565b925050600181019050611681565b5085935050505092915050565b6116c481611b3a565b82525050565b6116d381611b46565b82525050565b60006116e6602683611a8d565b91507f4f776e61626c653a206e6577206f776e657220697320746865207a65726f206160008301527f64647265737300000000000000000000000000000000000000000000000000006020830152604082019050919050565b600061174c602683611a8d565b91507f53656e64657220686173206e6f74207374616b65642070726f7669646564205460008301527f6f6b656e496400000000000000000000000000000000000000000000000000006020830152604082019050919050565b60006117b2602083611a8d565b91507f4f776e61626c653a2063616c6c6572206973206e6f7420746865206f776e65726000830152602082019050919050565b6040820160008201516117fb60008501826115e1565b50602082015161180e6020850182611814565b50505050565b61181d81611b92565b82525050565b61182c81611b92565b82525050565b600060208201905061184760008301846115f0565b92915050565b600060608201905061186260008301866115f0565b61186f60208301856115f0565b61187c6040830184611823565b949350505050565b600060408201905061189960008301856115f0565b6118a66020830184611823565b9392505050565b600060408201905081810360008301526118c781856115ff565b90506118d66020830184611823565b9392505050565b600060208201905081810360008301526118f7818461165d565b905092915050565b600060408201905061191460008301856116bb565b6119216020830184611823565b9392505050565b600060208201905061193d60008301846116ca565b92915050565b6000602082019050818103600083015261195c816116d9565b9050919050565b6000602082019050818103600083015261197c8161173f565b9050919050565b6000602082019050818103600083015261199c816117a5565b9050919050565b60006020820190506119b86000830184611823565b92915050565b6000604051905081810181811067ffffffffffffffff821117156119e5576119e4611c14565b5b8060405250919050565b600067ffffffffffffffff821115611a0a57611a09611c14565b5b602082029050602081019050919050565b6000819050602082019050919050565b6000819050602082019050919050565b600081519050919050565b600081519050919050565b6000602082019050919050565b6000602082019050919050565b600082825260208201905092915050565b600082825260208201905092915050565b600082825260208201905092915050565b6000611aa982611b92565b9150611ab483611b92565b9250827fffffffffffffffffffffffffffffffffffffffffffffffffffffffffffffffff03821115611ae957611ae8611be5565b5b828201905092915050565b6000611aff82611b92565b9150611b0a83611b92565b925082821015611b1d57611b1c611be5565b5b828203905092915050565b6000611b3382611b72565b9050919050565b60008115159050919050565b60007fffffffff0000000000000000000000000000000000000000000000000000000082169050919050565b600073ffffffffffffffffffffffffffffffffffffffff82169050919050565b6000819050919050565b6000611ba782611b92565b91507fffffffffffffffffffffffffffffffffffffffffffffffffffffffffffffffff821415611bda57611bd9611be5565b5b600182019050919050565b7f4e487b7100000000000000000000000000000000000000000000000000000000600052601160045260246000fd5b7f4e487b7100000000000000000000000000000000000000000000000000000000600052604160045260246000fd5b611c4c81611b28565b8114611c5757600080fd5b50565b611c6381611b92565b8114611c6e57600080fd5b5056fea2646970667358221220d74c1f33b901fdf9463099e4916c6cc66ac3bf0bab1671c8d5d2564a643391e764736f6c63430008000033",
  "linkReferences": {},
  "deployedLinkReferences": {}
}